{
  "_format": "hh-sol-artifact-1",
  "contractName": "Pay",
  "sourceName": "contracts/Pay.sol",
  "abi": [
    {
      "inputs": [],
      "stateMutability": "nonpayable",
      "type": "constructor"
    },
    {
      "inputs": [
        {
          "internalType": "string",
          "name": "_name",
          "type": "string"
        }
      ],
      "name": "addName",
      "outputs": [],
      "stateMutability": "nonpayable",
      "type": "function"
    },
    {
      "inputs": [
        {
          "internalType": "address",
          "name": "user",
          "type": "address"
        },
        {
          "internalType": "uint256",
          "name": "_amount",
          "type": "uint256"
        },
        {
          "internalType": "string",
          "name": "_message",
          "type": "string"
        }
      ],
      "name": "createRequest",
      "outputs": [],
      "stateMutability": "nonpayable",
      "type": "function"
    },
    {
      "inputs": [
        {
          "internalType": "address",
          "name": "_user",
          "type": "address"
        }
      ],
      "name": "getMyHistory",
      "outputs": [
        {
          "components": [
            {
              "internalType": "string",
              "name": "action",
              "type": "string"
            },
            {
              "internalType": "uint256",
              "name": "amount",
              "type": "uint256"
            },
            {
              "internalType": "string",
              "name": "message",
              "type": "string"
            },
            {
              "internalType": "address",
              "name": "otherPartyAddress",
              "type": "address"
            },
            {
              "internalType": "string",
              "name": "otherPartyName",
              "type": "string"
            }
          ],
          "internalType": "struct Pay.sendRecieve[]",
          "name": "",
          "type": "tuple[]"
        }
      ],
      "stateMutability": "view",
      "type": "function"
    },
    {
      "inputs": [
        {
          "internalType": "address",
          "name": "_user",
          "type": "address"
        }
      ],
      "name": "getMyName",
      "outputs": [
        {
          "components": [
            {
              "internalType": "string",
              "name": "name",
              "type": "string"
            },
            {
              "internalType": "bool",
              "name": "isNameSet",
              "type": "bool"
            }
          ],
          "internalType": "struct Pay.userName",
          "name": "",
          "type": "tuple"
        }
      ],
      "stateMutability": "view",
      "type": "function"
    },
    {
      "inputs": [
        {
          "internalType": "address",
          "name": "_user",
          "type": "address"
        }
      ],
      "name": "getMyRequests",
      "outputs": [
        {
          "internalType": "address[]",
          "name": "",
          "type": "address[]"
        },
        {
          "internalType": "uint256[]",
          "name": "",
          "type": "uint256[]"
        },
        {
          "internalType": "string[]",
          "name": "",
          "type": "string[]"
        },
        {
          "internalType": "string[]",
          "name": "",
          "type": "string[]"
        }
      ],
      "stateMutability": "view",
      "type": "function"
    },
    {
      "inputs": [],
      "name": "owner",
      "outputs": [
        {
          "internalType": "address",
          "name": "",
          "type": "address"
        }
      ],
      "stateMutability": "view",
      "type": "function"
    },
    {
      "inputs": [
        {
          "internalType": "uint256",
          "name": "_request",
          "type": "uint256"
        }
      ],
      "name": "payRequest",
      "outputs": [],
      "stateMutability": "payable",
      "type": "function"
    }
  ],
  "bytecode": "0x608060405234801561001057600080fd5b50336000806101000a81548173ffffffffffffffffffffffffffffffffffffffff021916908373ffffffffffffffffffffffffffffffffffffffff160217905550612471806100606000396000f3fe6080604052600436106100705760003560e01c8063370068aa1161004e578063370068aa1461011b57806363d4dd3b146101585780638da5cb5b14610174578063ba9a7a9e1461019f57610070565b806311456b4714610075578063169afbaa1461009e578063347b1b83146100db575b600080fd5b34801561008157600080fd5b5061009c60048036038101906100979190611ab4565b6101c8565b005b3480156100aa57600080fd5b506100c560048036038101906100c09190611b5b565b610245565b6040516100d29190611c68565b60405180910390f35b3480156100e757600080fd5b5061010260048036038101906100fd9190611b5b565b61034b565b6040516101129493929190611ed2565b60405180910390f35b34801561012757600080fd5b50610142600480360381019061013d9190611b5b565b61085f565b60405161014f9190612079565b60405180910390f35b610172600480360381019061016d91906120c7565b610b13565b005b34801561018057600080fd5b50610189610f0d565b6040516101969190612103565b60405180910390f35b3480156101ab57600080fd5b506101c660048036038101906101c1919061211e565b610f31565b005b6000600160003373ffffffffffffffffffffffffffffffffffffffff1673ffffffffffffffffffffffffffffffffffffffff16815260200190815260200160002090508181600001908051906020019061022392919061174b565b5060018160010160006101000a81548160ff0219169083151502179055505050565b61024d6117d1565b600160008373ffffffffffffffffffffffffffffffffffffffff1673ffffffffffffffffffffffffffffffffffffffff1681526020019081526020016000206040518060400160405290816000820180546102a7906121bc565b80601f01602080910402602001604051908101604052809291908181526020018280546102d3906121bc565b80156103205780601f106102f557610100808354040283529160200191610320565b820191906000526020600020905b81548152906001019060200180831161030357829003601f168201915b505050505081526020016001820160009054906101000a900460ff1615151515815250509050919050565b6060806060806000600260008773ffffffffffffffffffffffffffffffffffffffff1673ffffffffffffffffffffffffffffffffffffffff1681526020019081526020016000208054905067ffffffffffffffff8111156103af576103ae611989565b5b6040519080825280602002602001820160405280156103dd5781602001602082028036833780820191505090505b5090506000600260008873ffffffffffffffffffffffffffffffffffffffff1673ffffffffffffffffffffffffffffffffffffffff1681526020019081526020016000208054905067ffffffffffffffff81111561043e5761043d611989565b5b60405190808252806020026020018201604052801561046c5781602001602082028036833780820191505090505b5090506000600260008973ffffffffffffffffffffffffffffffffffffffff1673ffffffffffffffffffffffffffffffffffffffff1681526020019081526020016000208054905067ffffffffffffffff8111156104cd576104cc611989565b5b60405190808252806020026020018201604052801561050057816020015b60608152602001906001900390816104eb5790505b5090506000600260008a73ffffffffffffffffffffffffffffffffffffffff1673ffffffffffffffffffffffffffffffffffffffff1681526020019081526020016000208054905067ffffffffffffffff81111561056157610560611989565b5b60405190808252806020026020018201604052801561059457816020015b606081526020019060019003908161057f5790505b50905060005b600260008b73ffffffffffffffffffffffffffffffffffffffff1673ffffffffffffffffffffffffffffffffffffffff16815260200190815260200160002080549050811015610847576000600260008c73ffffffffffffffffffffffffffffffffffffffff1673ffffffffffffffffffffffffffffffffffffffff1681526020019081526020016000208281548110610637576106366121ee565b5b906000526020600020906004020190508060000160009054906101000a900473ffffffffffffffffffffffffffffffffffffffff1686838151811061067f5761067e6121ee565b5b602002602001019073ffffffffffffffffffffffffffffffffffffffff16908173ffffffffffffffffffffffffffffffffffffffff168152505080600101548583815181106106d1576106d06121ee565b5b6020026020010181815250508060020180546106ec906121bc565b80601f0160208091040260200160405190810160405280929190818152602001828054610718906121bc565b80156107655780601f1061073a57610100808354040283529160200191610765565b820191906000526020600020905b81548152906001019060200180831161074857829003601f168201915b505050505084838151811061077d5761077c6121ee565b5b6020026020010181905250806003018054610797906121bc565b80601f01602080910402602001604051908101604052809291908181526020018280546107c3906121bc565b80156108105780601f106107e557610100808354040283529160200191610810565b820191906000526020600020905b8154815290600101906020018083116107f357829003601f168201915b5050505050838381518110610828576108276121ee565b5b602002602001018190525050808061083f9061224c565b91505061059a565b50838383839750975097509750505050509193509193565b6060600360008373ffffffffffffffffffffffffffffffffffffffff1673ffffffffffffffffffffffffffffffffffffffff168152602001908152602001600020805480602002602001604051908101604052809291908181526020016000905b82821015610b0857838290600052602060002090600502016040518060a00160405290816000820180546108f3906121bc565b80601f016020809104026020016040519081016040528092919081815260200182805461091f906121bc565b801561096c5780601f106109415761010080835404028352916020019161096c565b820191906000526020600020905b81548152906001019060200180831161094f57829003601f168201915b505050505081526020016001820154815260200160028201805461098f906121bc565b80601f01602080910402602001604051908101604052809291908181526020018280546109bb906121bc565b8015610a085780601f106109dd57610100808354040283529160200191610a08565b820191906000526020600020905b8154815290600101906020018083116109eb57829003601f168201915b505050505081526020016003820160009054906101000a900473ffffffffffffffffffffffffffffffffffffffff1673ffffffffffffffffffffffffffffffffffffffff1673ffffffffffffffffffffffffffffffffffffffff168152602001600482018054610a77906121bc565b80601f0160208091040260200160405190810160405280929190818152602001828054610aa3906121bc565b8015610af05780601f10610ac557610100808354040283529160200191610af0565b820191906000526020600020905b815481529060010190602001808311610ad357829003601f168201915b505050505081525050815260200190600101906108c0565b505050509050919050565b600260003373ffffffffffffffffffffffffffffffffffffffff1673ffffffffffffffffffffffffffffffffffffffff168152602001908152602001600020805490508110610b97576040517f08c379a0000000000000000000000000000000000000000000000000000000008152600401610b8e906122f2565b60405180910390fd5b6000600260003373ffffffffffffffffffffffffffffffffffffffff1673ffffffffffffffffffffffffffffffffffffffff16815260200190815260200160002090506000818381548110610bef57610bee6121ee565b5b906000526020600020906004020190506000670de0b6b3a76400008260010154610c199190612312565b9050803414610c5d576040517f08c379a0000000000000000000000000000000000000000000000000000000008152600401610c54906123b8565b60405180910390fd5b8160000160009054906101000a900473ffffffffffffffffffffffffffffffffffffffff1673ffffffffffffffffffffffffffffffffffffffff166108fc349081150290604051600060405180830381858888f19350505050158015610cc7573d6000803e3d6000fd5b50610d888260000160009054906101000a900473ffffffffffffffffffffffffffffffffffffffff16338460010154856002018054610d05906121bc565b80601f0160208091040260200160405190810160405280929190818152602001828054610d31906121bc565b8015610d7e5780601f10610d5357610100808354040283529160200191610d7e565b820191906000526020600020905b815481529060010190602001808311610d6157829003601f168201915b50505050506111a9565b8260018480549050610d9a91906123d8565b81548110610dab57610daa6121ee565b5b9060005260206000209060040201838581548110610dcc57610dcb6121ee565b5b90600052602060002090600402016000820160009054906101000a900473ffffffffffffffffffffffffffffffffffffffff168160000160006101000a81548173ffffffffffffffffffffffffffffffffffffffff021916908373ffffffffffffffffffffffffffffffffffffffff160217905550600182015481600101556002820181600201908054610e5f906121bc565b610e6a9291906117ed565b506003820181600301908054610e7f906121bc565b610e8a9291906117ed565b5090505082805480610e9f57610e9e61240c565b5b6001900381819060005260206000209060040201600080820160006101000a81549073ffffffffffffffffffffffffffffffffffffffff02191690556001820160009055600282016000610ef3919061187a565b600382016000610f03919061187a565b5050905550505050565b60008054906101000a900473ffffffffffffffffffffffffffffffffffffffff1681565b610f396118ba565b33816000019073ffffffffffffffffffffffffffffffffffffffff16908173ffffffffffffffffffffffffffffffffffffffff168152505082816020018181525050818160400181905250600160003373ffffffffffffffffffffffffffffffffffffffff1673ffffffffffffffffffffffffffffffffffffffff16815260200190815260200160002060010160009054906101000a900460ff16156110ad57600160003373ffffffffffffffffffffffffffffffffffffffff1673ffffffffffffffffffffffffffffffffffffffff1681526020019081526020016000206000018054611026906121bc565b80601f0160208091040260200160405190810160405280929190818152602001828054611052906121bc565b801561109f5780601f106110745761010080835404028352916020019161109f565b820191906000526020600020905b81548152906001019060200180831161108257829003601f168201915b505050505081606001819052505b600260008573ffffffffffffffffffffffffffffffffffffffff1673ffffffffffffffffffffffffffffffffffffffff16815260200190815260200160002081908060018154018082558091505060019003906000526020600020906004020160009091909190915060008201518160000160006101000a81548173ffffffffffffffffffffffffffffffffffffffff021916908373ffffffffffffffffffffffffffffffffffffffff16021790555060208201518160010155604082015181600201908051906020019061118392919061174b565b5060608201518160030190805190602001906111a092919061174b565b50505050505050565b6111b16118f8565b6040518060400160405280600181526020017f2d0000000000000000000000000000000000000000000000000000000000000081525081600001819052508281602001818152505081816040018190525083816060019073ffffffffffffffffffffffffffffffffffffffff16908173ffffffffffffffffffffffffffffffffffffffff1681525050600160008573ffffffffffffffffffffffffffffffffffffffff1673ffffffffffffffffffffffffffffffffffffffff16815260200190815260200160002060010160009054906101000a900460ff161561136357600160008573ffffffffffffffffffffffffffffffffffffffff1673ffffffffffffffffffffffffffffffffffffffff16815260200190815260200160002060000180546112dc906121bc565b80601f0160208091040260200160405190810160405280929190818152602001828054611308906121bc565b80156113555780601f1061132a57610100808354040283529160200191611355565b820191906000526020600020905b81548152906001019060200180831161133857829003601f168201915b505050505081608001819052505b600360008673ffffffffffffffffffffffffffffffffffffffff1673ffffffffffffffffffffffffffffffffffffffff16815260200190815260200160002081908060018154018082558091505060019003906000526020600020906005020160009091909190915060008201518160000190805190602001906113e892919061174b565b5060208201518160010155604082015181600201908051906020019061140f92919061174b565b5060608201518160030160006101000a81548173ffffffffffffffffffffffffffffffffffffffff021916908373ffffffffffffffffffffffffffffffffffffffff160217905550608082015181600401908051906020019061147392919061174b565b50505061147e6118f8565b6040518060400160405280600181526020017f2b0000000000000000000000000000000000000000000000000000000000000081525081600001819052508381602001818152505082816040018190525085816060019073ffffffffffffffffffffffffffffffffffffffff16908173ffffffffffffffffffffffffffffffffffffffff1681525050600160008773ffffffffffffffffffffffffffffffffffffffff1673ffffffffffffffffffffffffffffffffffffffff16815260200190815260200160002060010160009054906101000a900460ff161561163057600160008773ffffffffffffffffffffffffffffffffffffffff1673ffffffffffffffffffffffffffffffffffffffff16815260200190815260200160002060000180546115a9906121bc565b80601f01602080910402602001604051908101604052809291908181526020018280546115d5906121bc565b80156116225780601f106115f757610100808354040283529160200191611622565b820191906000526020600020905b81548152906001019060200180831161160557829003601f168201915b505050505081608001819052505b600360008673ffffffffffffffffffffffffffffffffffffffff1673ffffffffffffffffffffffffffffffffffffffff16815260200190815260200160002081908060018154018082558091505060019003906000526020600020906005020160009091909190915060008201518160000190805190602001906116b592919061174b565b506020820151816001015560408201518160020190805190602001906116dc92919061174b565b5060608201518160030160006101000a81548173ffffffffffffffffffffffffffffffffffffffff021916908373ffffffffffffffffffffffffffffffffffffffff160217905550608082015181600401908051906020019061174092919061174b565b505050505050505050565b828054611757906121bc565b90600052602060002090601f01602090048101928261177957600085556117c0565b82601f1061179257805160ff19168380011785556117c0565b828001600101855582156117c0579182015b828111156117bf5782518255916020019190600101906117a4565b5b5090506117cd919061193d565b5090565b6040518060400160405280606081526020016000151581525090565b8280546117f9906121bc565b90600052602060002090601f01602090048101928261181b5760008555611869565b82601f1061182c5780548555611869565b8280016001018555821561186957600052602060002091601f016020900482015b8281111561186857825482559160010191906001019061184d565b5b509050611876919061193d565b5090565b508054611886906121bc565b6000825580601f1061189857506118b7565b601f0160209004906000526020600020908101906118b6919061193d565b5b50565b6040518060800160405280600073ffffffffffffffffffffffffffffffffffffffff1681526020016000815260200160608152602001606081525090565b6040518060a00160405280606081526020016000815260200160608152602001600073ffffffffffffffffffffffffffffffffffffffff168152602001606081525090565b5b8082111561195657600081600090555060010161193e565b5090565b6000604051905090565b600080fd5b600080fd5b600080fd5b600080fd5b6000601f19601f8301169050919050565b7f4e487b7100000000000000000000000000000000000000000000000000000000600052604160045260246000fd5b6119c182611978565b810181811067ffffffffffffffff821117156119e0576119df611989565b5b80604052505050565b60006119f361195a565b90506119ff82826119b8565b919050565b600067ffffffffffffffff821115611a1f57611a1e611989565b5b611a2882611978565b9050602081019050919050565b82818337600083830152505050565b6000611a57611a5284611a04565b6119e9565b905082815260208101848484011115611a7357611a72611973565b5b611a7e848285611a35565b509392505050565b600082601f830112611a9b57611a9a61196e565b5b8135611aab848260208601611a44565b91505092915050565b600060208284031215611aca57611ac9611964565b5b600082013567ffffffffffffffff811115611ae857611ae7611969565b5b611af484828501611a86565b91505092915050565b600073ffffffffffffffffffffffffffffffffffffffff82169050919050565b6000611b2882611afd565b9050919050565b611b3881611b1d565b8114611b4357600080fd5b50565b600081359050611b5581611b2f565b92915050565b600060208284031215611b7157611b70611964565b5b6000611b7f84828501611b46565b91505092915050565b600081519050919050565b600082825260208201905092915050565b60005b83811015611bc2578082015181840152602081019050611ba7565b83811115611bd1576000848401525b50505050565b6000611be282611b88565b611bec8185611b93565b9350611bfc818560208601611ba4565b611c0581611978565b840191505092915050565b60008115159050919050565b611c2581611c10565b82525050565b60006040830160008301518482036000860152611c488282611bd7565b9150506020830151611c5d6020860182611c1c565b508091505092915050565b60006020820190508181036000830152611c828184611c2b565b905092915050565b600081519050919050565b600082825260208201905092915050565b6000819050602082019050919050565b611cbf81611b1d565b82525050565b6000611cd18383611cb6565b60208301905092915050565b6000602082019050919050565b6000611cf582611c8a565b611cff8185611c95565b9350611d0a83611ca6565b8060005b83811015611d3b578151611d228882611cc5565b9750611d2d83611cdd565b925050600181019050611d0e565b5085935050505092915050565b600081519050919050565b600082825260208201905092915050565b6000819050602082019050919050565b6000819050919050565b611d8781611d74565b82525050565b6000611d998383611d7e565b60208301905092915050565b6000602082019050919050565b6000611dbd82611d48565b611dc78185611d53565b9350611dd283611d64565b8060005b83811015611e03578151611dea8882611d8d565b9750611df583611da5565b925050600181019050611dd6565b5085935050505092915050565b600081519050919050565b600082825260208201905092915050565b6000819050602082019050919050565b6000611e488383611bd7565b905092915050565b6000602082019050919050565b6000611e6882611e10565b611e728185611e1b565b935083602082028501611e8485611e2c565b8060005b85811015611ec05784840389528151611ea18582611e3c565b9450611eac83611e50565b925060208a01995050600181019050611e88565b50829750879550505050505092915050565b60006080820190508181036000830152611eec8187611cea565b90508181036020830152611f008186611db2565b90508181036040830152611f148185611e5d565b90508181036060830152611f288184611e5d565b905095945050505050565b600081519050919050565b600082825260208201905092915050565b6000819050602082019050919050565b600060a0830160008301518482036000860152611f7c8282611bd7565b9150506020830151611f916020860182611d7e565b5060408301518482036040860152611fa98282611bd7565b9150506060830151611fbe6060860182611cb6565b5060808301518482036080860152611fd68282611bd7565b9150508091505092915050565b6000611fef8383611f5f565b905092915050565b6000602082019050919050565b600061200f82611f33565b6120198185611f3e565b93508360208202850161202b85611f4f565b8060005b8581101561206757848403895281516120488582611fe3565b945061205383611ff7565b925060208a0199505060018101905061202f565b50829750879550505050505092915050565b600060208201905081810360008301526120938184612004565b905092915050565b6120a481611d74565b81146120af57600080fd5b50565b6000813590506120c18161209b565b92915050565b6000602082840312156120dd576120dc611964565b5b60006120eb848285016120b2565b91505092915050565b6120fd81611b1d565b82525050565b600060208201905061211860008301846120f4565b92915050565b60008060006060848603121561213757612136611964565b5b600061214586828701611b46565b9350506020612156868287016120b2565b925050604084013567ffffffffffffffff81111561217757612176611969565b5b61218386828701611a86565b9150509250925092565b7f4e487b7100000000000000000000000000000000000000000000000000000000600052602260045260246000fd5b600060028204905060018216806121d457607f821691505b602082108114156121e8576121e761218d565b5b50919050565b7f4e487b7100000000000000000000000000000000000000000000000000000000600052603260045260246000fd5b7f4e487b7100000000000000000000000000000000000000000000000000000000600052601160045260246000fd5b600061225782611d74565b91507fffffffffffffffffffffffffffffffffffffffffffffffffffffffffffffffff82141561228a5761228961221d565b5b600182019050919050565b600082825260208201905092915050565b7f4e6f207375636820726571756573740000000000000000000000000000000000600082015250565b60006122dc600f83612295565b91506122e7826122a6565b602082019050919050565b6000602082019050818103600083015261230b816122cf565b9050919050565b600061231d82611d74565b915061232883611d74565b9250817fffffffffffffffffffffffffffffffffffffffffffffffffffffffffffffffff04831182151516156123615761236061221d565b5b828202905092915050565b7f50617920436f727265637420416d6f756e740000000000000000000000000000600082015250565b60006123a2601283612295565b91506123ad8261236c565b602082019050919050565b600060208201905081810360008301526123d181612395565b9050919050565b60006123e382611d74565b91506123ee83611d74565b9250828210156124015761240061221d565b5b828203905092915050565b7f4e487b7100000000000000000000000000000000000000000000000000000000600052603160045260246000fdfea26469706673582212208bdd9f76efb6be07bcd4808e1b4c0dbc3918577d05684ece06056f82bb8ee1cd64736f6c634300080a0033",
  "linkReferences": {},
  "deployedLinkReferences": {}
}